:020000020000FC
:1000000078C001C0512E552D5E6F52BB5694189585
:10001A00A895789426B2C39800000000000000005A
:10002A000000000016B2C39A0000000000000000A1
:10003A0000000000C398000000000000000000005B
:10004A000000C39A00000000000000000000000049
:10005A00C398000000000000000000000000C39ADE
:10006A0000000000000000000000000036B2C39843
:10007A00000000000000000000000000C39A000019
:10008A00000000000000000000001FEF27FE1F7E96
:10009A0022FE1F7B21FE1F7724FE1F7D25FE1E7F69
:1000AA0015FE1D7F10FE177F31FE1B7F3A9519F44E
:1000BA003CE001E020274A9519F44CE002E02027B1
:1000CA00032D0095042102FF01C02D7F04FF01C00A
:1000DA002E7F432C32FE02C04CE0226034FE02C066
:1000EA003CE0216012231895F89404B7002404BF59
:1000FA000F70F9F30AE501BF0FED0DBF0FE205BF5F
:10010A00479A0FEF0BBB08BB02BB08E007BB889AF4
:10011A0000EC0BBF02E000BF00E406BF05E003BF2E
:10012A0001E009BF1FEF512E2FEF78948895FECF7B
:0E013A006D2E642E2F5844532C20323031305D
:00000001FF
